:1000000010E0A0E6B0E0E0E3F8E003C0C895319668
:100010000D92AA3AB107D1F720E0AAEAB0E001C0F8
:100020001D92A03BB207E1F7CF93C82F8A3011F49D
:100030008DE0FADF8091C80085FFFCCFC093CE0031
:10004000CF9108958091C80087FFFCCF8091CE00AA
:1000500008951092CD0083E38093CC0086E08093D6
:10006000CA0088E18093C90008959091C80095FF67
:10007000FCCF8093CE0008958091C80087FFFCCF0D
:100080008091CE000895CF93DF93CDB7DEB7C057F0
:10009000D7410FB6F894DEBF0FBECDBFDADF8EE6D4
:1000A00090E09093AD008093AC0080E690E0909358
:1000B000AB008093AA003F9A8C2F9D2F0196E82ECB
:1000C000F92E0BE910E0479847988CE790E04ED066
:1000D0008E2D9F2D0AD0FF92EF921F930F9330D059
:1000E0000F900F900F900F90EECF0F931F93CF9321
:1000F000DF93E091AA00F091AB00238120FD03C0C3
:1001000080E090E018C0C92FD82F082F192F8091B8
:10011000AA009091AB006DD28F3F2FEF920781F331
:10012000E02FF12F81930E2F1F2F0A9781F7319720
:1001300010828D2F9C2FDF91CF911F910F910895E9
:10014000A0E0B0E0E5EAF0E04BC34C2F5D2F4B5F41
:100150005F4FE42FF52F619171914E2F5F2F8091AA
:10016000AC009091AD0036D0E2E056C30F931F93E0
:10017000CF93DF93E091AC00F091AD00238121FF9C
:100180001FC0082F192FD0E0C0E0E02FF12F819180
:100190000E2F1F2F6091AC007091AD00A62FB72FCE
:1001A0001896ED91FC911997882331F00995892BC8
:1001B00061F3DFEFCFEFE9CF8AE00995892B19F0E2
:1001C0008FEF9FEF02C08D2F9C2FDF91CF911F915A
:1001D0000F910895ACE0B0E0EFEEF0E0F1C2E82E50
:1001E000F92EC62ED72E042F152FE82FF92F1782A0
:1001F0001682838181FFDFC18C2F9D2F0196882E6F
:10020000992EEE2DFF2D9381EC2DFD2D93FDC8959C
:1002100093FF00803196802DCE2EDF2E882309F4A7
:10022000C5C1853251F493FDC89593FF0080319686
:10023000802DCE2EDF2E853229F46E2D7F2D90E07D
:1002400017D2DFCF512C312C20E02032A0F48B329A
:1002500069F030F4803259F0833269F420612CC0A7
:100260008D3239F0803339F4216026C02260246059
:1002700023C0286021C027FD2BC030ED380F3A3055
:1002800078F426FF06C0852D6AE091D2582E530ED1
:1002900013C0832D6AE08BD2382E330E20620CC03F
:1002A0008E3221F426FD82C1206406C08C3611F402
:1002B000206802C0883661F4EC2DFD2D93FDC895B1
:1002C00093FF00803196802DCE2EDF2E8111BDCF81
:1002D000982F9F7D9554933028F40C5F1F4FFFE3B8
:1002E000F9830EC0833631F0833781F0833509F00E
:1002F00069C028C0E02FF12F808189830E5F1F4FD6
:1003000044244394512CA82CB92C19C0602E712E72
:10031000F2E06F0E711CE02FF12FA080B18026FF5C
:1003200003C0652D70E002C06FEF7FEF8A2D9B2D1B
:100330002C8753D1482E592E062D172D2C852F771B
:10034000222E1BC0602E712EF2E06F0E711CE02F6A
:10035000F12FA080B18026FF03C0652D70E002C0A0
:100360006FEF7FEF8A2D9B2D2C872AD1482E592E97
:100370002C852068222E062D172D23FC1FC0832DCF
:1003800090E048165906D0F46E2D7F2D80E290E063
:100390006FD13A94F4CFEA2DFB2D27FCC89527FEA8
:1003A00000803196802DAE2EBF2E6E2D7F2D90E0D9
:1003B0005FD131103A94F1E04F1A510841145104C1
:1003C00051F7EAC0843611F0893641F5E02FF12F5C
:1003D00027FF07C060817181828193810C5F1F4F6D
:1003E00008C060817181072E000C880B990B0E5F8D
:1003F0001F4F2F76722E97FF09C0909580957095AC
:1004000061957F4F8F4F9F4F2068722E2AE030E01A
:10041000482D592D68D1A82EA81845C0853729F434
:100420002F7EB22E2AE030E025C0F22FF97FBF2EBA
:100430008F36C1F018F4883579F0B8C0803719F0DC
:10044000883721F0B3C02F2F2061B22EB4FE0DC02B
:100450008B2D8460B82E09C024FF0AC09F2F9660A0
:10046000B92E06C028E030E005C020E130E002C02F
:1004700020E132E0E02FF12FB7FE07C060817181EB
:10048000828193810C5F1F4F06C06081718180E083
:1004900090E00E5F1F4F482D592D25D1A82EA8188A
:1004A000FB2DFF777F2E76FE0BC0372D3E7FA514E8
:1004B00050F474FE0AC072FC08C0372D3E7E05C0A1
:1004C000BA2C372D03C0BA2C01C0B52C34FF0EC096
:1004D000EC2FFD2FEA0DF11D8081803311F4397E60
:1004E00009C032FF06C0B394B39404C0832F86784A
:1004F00009F0B39433FD13C030FF06C05A2CB31477
:1005000018F4530C5B18B32CB31468F46E2D7F2DC4
:1005100080E290E03C87ACD0B3943C85F5CFB31437
:1005200010F43B1801C0312C34FF13C06E2D7F2D09
:1005300080E390E03C879CD03C8532FF18C031FDC1
:1005400003C088E790E002C088E590E06E2D7F2D23
:100550000DC0832F867859F031FF02C08BE201C0B5
:1005600080E237FD8DE26E2D7F2D90E081D0A514C5
:1005700038F46E2D7F2D80E390E07AD05A94F7CF37
:10058000AA94E82DF92DEA0DF11D80816E2D7F2DA5
:1005900090E06ED0A110F4CF332009F432CE6E2D4E
:1005A0007F2D80E290E064D03A94F6CFEE2DFF2DBF
:1005B0008681978102C08FEF9FEF2C96E2E11CC1EC
:1005C000E82FF92FC8953196615070400110D0F78F
:1005D000809590958E0F9F1F0895E82FF92F6150F9
:1005E000704001900110D8F7809590958E0F9F1F55
:1005F0000895CF93DF93C82FD92F2B8120FF33C0CD
:1006000026FF0AC02F7B2B838E819F8101969F83BB
:100610008E838A8190E029C022FF0FC0E881F98192
:100620008081082E000C990B009719F420622B830F
:100630001AC03196F983E8830EC0EA85FB850995D7
:1006400097FF09C02B81019611F080E201C080E183
:10065000822B8B8308C02E813F812F5F3F4F3F83CA
:100660002E83992702C08FEF9FEFDF91CF910895DE
:100670000F931F93CF93DF93E62FF72F238121FD55
:1006800003C08FEF9FEF2AC022FF17C0468157811A
:1006900024813581421753074CF4A081B1812A2F60
:1006A0003B2F2F5F3F4F318320838C9326813781EF
:1006B0002F5F3F4F3783268311C0C62FD72F092FB7
:1006C000182F0084F185E02D0995892BD1F68E81B4
:1006D0009F8101969F838E83812F902FDF91CF91F1
:1006E0001F910F910895E42FF52FAA27283069F163
:1006F000203199F1E8946F936E7F6E5F7F4F8F4F3B
:100700009F4FAF4FB1E041D0B4E03FD0670F781FAB
:10071000891F9A1FA11D680F791F8A1F911DA11D96
:100720006A0F711D811D911DA11D23D009F46894CC
:100730003F91062E000C3019000C000C3019305D72
:100740003193CEF68E2F9F2F0895462F4770405D30
:100750004193B3E00FD0C9F7F5CF462F4F70405DFE
:100760004A3318F0495D31FD4052419302D0A9F758
:10077000E9CFB4E0A6959795879577956795BA9553
:10078000C9F70097610571050895262F372F482F67
:10079000592F0A2E06945795479537952795BA9560
:1007A000C9F7620F731F841F951FA01D08950024B1
:1007B00080FD060E660F11F08695D1F7802D089505
:1007C0002F923F924F925F926F927F928F929F9261
:1007D000AF92BF92CF92DF92EF92FF920F931F934F
:1007E000CF93DF93CDB7DEB7CA1BDB0B0FB6F89400
:1007F000DEBF0FBECDBF09942A88398848885F8440
:100800006E847D848C849B84AA84B984C884DF80B0
:10081000EE80FD800C811B81AA81B981CE0FD11D94
:100820000FB6F894DEBF0FBECDBFCA2FDB2F0895E1
:100830000000000100000000000022000000000095
:1008400000020000000014000000000048656C6C0D
:100850006F20776F726C6421205772697465207302
:100860006F6D657468696E67210A000A596F75209B
:0A08700077726F74652025730A008B
:00000001FF
