:100000000C94CB000C94F3000C94F3000C94F300CC
:100010000C94F3000C94F3000C94F3000C94F30094
:100020000C94F3000C94F3000C9414030C947D03D3
:100030000C94F3000C94F3000C94F3000C94F30074
:100040000C94F3000C94F3000C94F3000C94F30064
:100050000C94F3000C94F3000C94F3000C94BF0583
:100060000C94F3000C94F3000C94F3000C94F30044
:100070000C94F3000C94F3000C94F3000C94F30034
:100080000C94F3000C94F3000C94F3000C94F30024
:100090000C94F3000C94F3000C94F3000C94F30014
:1000A0000C94F3000C94F3000C94F3000000000097
:1000B000240027002A002D00300000000000250049
:1000C00028002B002E00310004040404040304055E
:1000D00002020202040302020202060606060606E5
:1000E00004040202020404040802011040804010CB
:1000F000204080408008020401804020100201104E
:100100008010204040200000000200090F00000382
:100110000401000C000000000000000000000000CE
:100120000000000000080B000202020100090400A8
:100130000001020200000524001001052401010154
:10014000042402060524060001070581031000406F
:1001500009040100020A0000000705020240000035
:10016000070583024000000403090412010002EFA6
:100170000201409A230C80000101020301416461E5
:100180006672756974004665617468657220333201
:1001900075340000090611241FBECFEFDAE0DEBF80
:1001A000CDBF11E0A0E0B1E0E0E1FFE002C00590CA
:1001B0000D92A632B107D9F721E0A6E2B1E001C065
:1001C0001D92AB39B207E1F710E0CBECD0E004C0F0
:1001D0002197FE010E948007CA3CD107C9F70E94FF
:1001E0001E060C9486070C94000090919A019111C0
:1001F00003C08FEF9FEF08954FB7F89492E090936C
:10020000E9009091F200292F30E01216130614F441
:1002100021E030E0232B29F084E68093990180913E
:10022000F100992339F02091F200211103C02BE64F
:100230002093E8004FBF9923E1F290E008952FB793
:10024000F89483E08093E9009091E800892F807210
:1002500095FF04C09091F20080E4891B2FBF0895A0
:100260008091910181110DC082E080938D0184E025
:1002700080938E011092900110928F0181E0809303
:1002800091018DE891E00895CF93DF931F92CDB750
:10029000DEB76983DC01ED91FC910280F381E02DF2
:1002A00041E050E0BE016F5F7F4F09950F90DF91F5
:1002B000CF91089583E08093E9008091F200882334
:1002C00019F08AE38093E80008950E941F0190E0EE
:1002D0000895FC018485958597FD05C02FEF3FEFBC
:1002E0003587248708950C94F500CF93DF93EC01B4
:1002F0008C859D8597FF04C00E94F5009D878C87A3
:100300008C859D85DF91CF910895FC01848595852D
:1003100097FD0BC09FB7F89482E08093E90080912D
:10032000F2009FBF90E0019608959FB7F89482E095
:100330008093E9008091F2009FBF90E00895409182
:100340003701509138012091350130913601421723
:100350005307B4F49091E8009570E1F39091E800B0
:1003600092FD19C08093F10080913701909138017E
:1003700001968F739927892B19F48EEF8093E800EB
:1003800080913701909138010196909338018093C4
:10039000370181E0089580E00895EF92FF920F9376
:1003A0001F93CF93DF93F82E192FE62E042F81E0B1
:1003B000860F880F0E949F0183E00E949F01CF2D2E
:1003C000D12FEC0EFD2EF11CCE15DF05B9F007FF85
:1003D00013C0FE0184910E949F01182F80E00E94AB
:1003E0009F01812321968111EFCFDF91CF911F9142
:1003F0000F91FF90EF9008958881EDCF81E0F5CFC8
:10040000DF92EF92FF920F931F93CF93DF93D82E3B
:100410008A01EB017B01E40EF51ECE15DF0559F0D4
:10042000D7FE12C0FE0184910E949F012196811186
:10043000F4CF0FEF1FEFC801DF91CF911F910F9104
:10044000FF90EF90DF9008958881EECF0F931F9378
:10045000CF93DF931F92CDB7DEB782E0898342E46A
:1004600050E065E271E080E80E9400020E943001E5
:10047000DC0112960D911C910115110589F0D8012E
:10048000ED91FC910280F381E02DBE016F5F7F4F03
:10049000C801099597FD04C0F80100851185ECCFCE
:1004A00089810F90DF91CF911F910F9108953FB7F0
:1004B000F8948091270190912801A0912901B09191
:1004C0002A0126B5A89B05C02F3F19F00196A11D52
:1004D000B11D3FBFBA2FA92F982F8827BC01CD018E
:1004E000620F711D811D911D43E0660F771F881FEC
:1004F000991F4A95D1F70895CF92DF92EF92FF921C
:100500000E9457026B017C010E9457026C197D0901
:100510008E099F09683E734081059105A8F3FF90FD
:10052000EF90DF90CF9008958F929F92AF92BF92FD
:10053000CF92DF92EF92FF920F931F93CF93DF93AF
:100540006C017B018A0180910B01882309F457C05B
:1005500080919A01882309F452C080913C0180FF68
:1005600005C08091E00082608093E000E801B12C3A
:100570008AEFA82E93E0892E2AE3922E209711F479
:10058000BB20B9F10E941F01811106C0AA94AA20C4
:10059000B1F10E947C02F2CF8C171D0611F00CF015
:1005A0008C2F9FB7F8948092E9002091E80025FDF8
:1005B00002C09FBFE3CF282F30E0C21BD30BF7014F
:1005C000815020F041914093F100FACFE20EF31EEA
:1005D000BB2021F09092E800B12CEBCF8091E80095
:1005E00085FDE7CF9092E800BB24B394209709F3F0
:1005F000F3CF84E680933B01101611063CF081E0B6
:1006000090E0F6019383828310E000E0C801DF915F
:10061000CF911F910F91FF90EF90DF90CF90BF90FF
:10062000AF909F908F9008951F920F920FB60F92E8
:1006300011248F939F938091E1009091E100937F2B
:100640009093E10083FF0FC01092E90091E0909336
:10065000EB001092EC0092E39093ED0010929A015F
:1006600098E09093F00082FF1CC093E09093E90023
:100670009091F200992319F09AE39093E8009091F9
:100680003B01992329F090913B01915090933B01BC
:1006900090919901992329F090919901915090930B
:1006A000990184FF18C08091E2008E7E8160809362
:1006B000E2008091E1008F7E8093E10080913C0117
:1006C0008E7E806180933C019F918F910F900FBE31
:1006D0000F901F90189580FFF7CF8091E2008E7EDB
:1006E00080618093E2008091E1008E7E8093E10042
:1006F00080913C018E7E8160E5CF1F920F920FB6F4
:100700000F921124CF92DF92EF92FF920F931F93DB
:100710002F933F934F935F936F937F938F939F9309
:10072000AF93BF93EF93FF93CF93DF93CDB7DEB734
:100730006C97DEBFCDBF1092E9008091E80083FF87
:100740002FC089E0FE017596EE2EDF2E815029F034
:100750009091F10090833196F9CF84E680939901CE
:1007600082EF8093E8008D8987FF39C09091E8007F
:1007700090FFFCCF982F907609F033C19E894F8966
:10078000588D2F89F88C911131C0803861F5809196
:100790003A018093F1001092F1008EEF8093E8000F
:1007A0006C960FB6F894DEBF0FBECDBFDF91CF9130
:1007B000FF91EF91BF91AF919F918F917F916F9139
:1007C0005F914F913F912F911F910F91FF90EF906B
:1007D000DF90CF900F900FBE0F901F9018959EEF57
:1007E0009093E800C7CF1092F100D5CF913059F423
:1007F0008111D3CF4130510581F680913A018D7F2F
:1008000080933A01CACF933049F48111C6CF413069
:10081000510519F680913A018260F2CF953041F48A
:100820008091E80080FFFCCF20682093E300B5CFE3
:10083000963009F0A8C00B8D1C8D22E01092E900C3
:100840001092380110923701F2122EC01092360128
:10085000109235010E9426021F8299E09983FA8244
:1008600091E09E8390EA98879AEF998720913701CB
:1008700030913801275F3F4F3C832B838D8310924B
:10088000E90010923801109237011093360100935D
:10089000350149E050E0BE016F5F7F4F80E00E946C
:1008A00000020E94260279CF109336010093350191
:1008B0000E943001DC0112960D911C910115110569
:1008C00009F457C1D801ED91FC910480F581E02D28
:1008D0006E2D7D2DC8010995009709F045C1F801DD
:1008E00000851185EBCFF3E0FF120EC08F898823BE
:1008F00009F440C0823061F440E86CE086E891E0A1
:100900000E94CD01811149CF81E28093EB0048CF55
:10091000813029F440E868E08DE791E0F1CF833041
:1009200099F70E943001DC011296ED90FC908E0147
:100930000F5F1F4F6801E114F10479F0D701ED91C9
:10094000FC910680F781E02DB801C7010995080FD9
:10095000111DF701E084F184EECFD8011C92F6015D
:1009600001900020E9F73197BF016C197D0940E043
:10097000C601C6CF67E671E0FB01449150E080E814
:100980000E9400020ACF973009F4BECF983021F4BC
:1009900081E08093F10001CF993009F0FECE8370A1
:1009A00009F0B2CFEDE0F1E081E031E096E3219192
:1009B000222371F08093E9003093EB00DF0111975F
:1009C0002C912093EC009093ED008F5F873079F7A6
:1009D0008EE78093EA001092EA008F8980939A0153
:1009E000DCCE8B8D9C8D1092E90010923801109214
:1009F00037019093360180933501898D81119AC01A
:100A00008E899D89913A49F4813209F07DCF47E082
:100A100050E064E071E080E0B3CF913209F074CF30
:100A2000833269F48F89988DB0E0A0E08093000153
:100A300090930101A0930201B0930301AECE8032E6
:100A4000A9F48091E80082FFFCCF88E0E4E0F1E0C7
:100A5000815029F09091F10090833196F9CF84E68E
:100A6000809399018BEF8093E80097CE823209F052
:100A700094CE8F8980930B01EEEFFFE785919491DF
:100A80008B3F9C4D51F1E0E0F8E0809104019091A2
:100A90000501A0910601B0910701803B9440A1059A
:100AA000B105F1F480910B0180FD1AC0EE3F8AE0A0
:100AB000F80789F587E797E7918380838091600045
:100AC0008093390188E19BE00FB6F894A895809354
:100AD00060000FBE9093600060CEEEEFFAE0D5CFDD
:100AE000808191818737974709F057CEA8958091EB
:100AF000600088618093600080913901809360007C
:100B0000EE3F2AE0F20789F08091FE0A9091FF0AF9
:100B10009183808342CE808191818737980751F2FB
:100B20009093FF0A8093FE0AC5CF1092FF0A10929D
:100B3000FE0A33CE0E943001DC0112960D911C9109
:100B40000115110509F4E0CED801ED91FC91019059
:100B5000F081E02D6E2D7D2DC801099581111DCEEE
:100B6000F80100851185ECCF181619060CF415CE86
:100B7000CBCEF1E0FF12B7CE6BE671E0FDCE1F9257
:100B80000F920FB60F9211242F933F938F939F9341
:100B9000AF93BF9380912B0190912C01A0912D01D7
:100BA000B0912E013091260126E0230F2D3758F504
:100BB0000296A11DB11D2093260180932B019093D5
:100BC0002C01A0932D01B0932E01809127019091CB
:100BD0002801A0912901B0912A010196A11DB11D02
:100BE0008093270190932801A0932901B0932A01B3
:100BF000BF91AF919F918F913F912F910F900FBE19
:100C00000F901F90189529E8230F0396A11DB11D81
:100C1000D2CFEDE3F1E01382128288EE93E0A0E000
:100C2000B0E084839583A683B78387E191E09183C5
:100C300080838FEF9FEF958784870895789484B59C
:100C4000826084BD84B5816084BD85B5826085BDC8
:100C500085B5816085BD80916E00816080936E0056
:100C60001092810080918100826080938100809148
:100C700081008160809381008091800081608093F9
:100C8000800080919100826080939100809191001A
:100C900081608093910080919000816080939000AA
:100CA0008091C10084608093C1008091C100826006
:100CB0008093C1008091C10081608093C1008091C8
:100CC000C30081608093C3008091C00082608093E4
:100CD000C0008091C20081608093C20080917A0040
:100CE000846080937A0080917A00826080937A0099
:100CF00080917A008E7F80937A0080917A0080685C
:100D000080937A0010929A0110923A0110923C015D
:100D10008091D70081608093D70080EA8093D800CB
:100D200089B58F7E89BD89B5826089BD09B400FE11
:100D3000FDCF0E947C028091D8008F7C80618093DF
:100D4000D8008091E000807F8093E0008091E100F6
:100D50008E7E8093E1008DE08093E200C4EFD0E0CE
:100D6000FE01249105ED10E0F8018491882399F0AB
:100D700090E0880F991FFC01E455FF4FA591B491B5
:100D8000FC01E654FF4F859194918FB7F8949C91A4
:100D9000292B2C938FBF93E1C92E91E0D92E20E00F
:100DA000E22E20E0F22EAA24A394B12C2FB7F894BF
:100DB00080912B0190912C01A0912D01B0912E01D9
:100DC0002FBF4091310150913201609133017091F8
:100DD00034013C014D01641A750A860A970AB40170
:100DE000A301483E53406105710508F453C0809348
:100DF000310190933201A0933301B093340180917B
:100E00002F0190913001892B09F029C0B092300157
:100E1000A0922F01F6019491FE012491F801849192
:100E2000882309F437C030912F01992311F1915093
:100E30009F30F8F4E92FF0E0E05EF84F0C94800763
:100E400059075D073407510755073907390739072F
:100E5000600766076A076E077407390778071092FC
:100E6000300110922F01D6CF909180009F77909300
:100E70008000E82FF0E0EE0FFF1FE654FF4FA59132
:100E8000B4918FB7F8949C91311138C020952923E3
:100E90002C938FBFE114F10409F488CF0E94000065
:100EA00085CF909180009F7DE2CF90918000977FC9
:100EB000DECF94B59F7794BDDCCF94B59F7DFBCFFB
:100EC000909190009F7790939000D3CF9091900055
:100ED0009F7DF9CF90919000977FF5CF9091C000C2
:100EE0009F779093C000C5CF9091C0009F7DF9CFB0
:100EF0009091C200977F9093C200BBCF292BC8CF9F
:100F0000EE0FFF1F0590F491E02D0994F894FFCFA8
:100F1000FFFFFFFF00E100000000000000C1808132
:100F2000000000000000004401940265015A0185A0
:060F3000016901750100DA
:00000001FF
