:100000000C9456000C946B000C946B000C946B00D9
:100010000C946B000C946B000C946B000C946B00B4
:100020000C946B000C946B000C946B000C946B00A4
:100030000C946B000C946B000C946B000C946B0094
:100040000C946B000C946B000C946B000C946B0084
:100050000C946B000C946B000C946B000C946B0074
:100060000C946B000C946B000C946B000C946B0064
:100070000C946B000C946B000C946B000C946B0054
:100080000C946B000C946B000C946B000C946B0044
:100090000C946B000C946B000C946B000C946B0034
:1000A0000C946B000C946B000C946B0011241FBE1D
:1000B000CFEFDAE0DEBFCDBF11E0A0E0B1E0E6EACD
:1000C000F3E002C005900D92AE30B107D9F70E945F
:1000D000A2010C94D1010C940000479A2FEF89E6FD
:1000E00098E1215080409040E1F700C0000047981F
:1000F0002FEF89E698E1215080409040E1F700C061
:1001000000000895479A2FEF8DE399E42150804035
:100110009040E1F700C0000047982FEF89E698E192
:10012000215080409040E1F700C000000895CF9337
:10013000C82F8F7D813409F468C0823419F40E947D
:10014000820046C0833419F40E9482003AC084348D
:10015000E1F0853409F440C0863419F40E946D0042
:1001600030C0873411F1883419F40E946D0030C01A
:10017000893481F18A3419F40E946D000FC08B34E8
:10018000D9F08C3429F40E946D000E94820022C0B4
:100190008D3491F18E34B9F08F3419F40E948200BD
:1001A0002BC0803529F40E946D000E9482000BC094
:1001B000813529F40E9482000E94820026C0823587
:1001C00029F40E946D000E94820006C0833539F434
:1001D0000E946D000E946D000E946D0031C0843548
:1001E000B1F0853581F0863519F40E946D000BC0A1
:1001F000873529F40E946D000E94820008C088356E
:1002000049F40E9482000E946D000E946D000E94CD
:10021000820016C0893549F40E9482000E946D0058
:100220000E9482000E94820010C08A3549F40E9418
:1002300082000E9482000E946D000E946D0005C035
:10024000C13319F40E946D004AC0C23329F40E94E0
:100250006D000E946D0045C0C33329F40E946D00FB
:100260000E946D005EC0C43349F40E946D000E947C
:100270006D000E946D000E946D0057C0C53319F4D7
:100280000E946D0004C0C63329F40E9482000E94BF
:100290006D0006C0C73339F40E9482000E948200BC
:1002A0000E946D0008C0C83349F40E9482000E9479
:1002B00082000E9482000E946D000AC0C93359F476
:1002C0000E9482000E9482000E9482000E9482009E
:1002D0000E946D002CC0C03339F40E9482000E943D
:1002E00082000E9482001FC0C03251F42FEF81E1D2
:1002F0009AE7215080409040E1F700C0000017C00D
:10030000C132A9F42FEF81E19AE72150804090405B
:10031000E1F700C000000E9482000E946D000E9470
:1003200082000E946D000E9482000E9482002FEFD6
:1003300083ED90E3215080409040E1F700C0000041
:10034000CF9108953F9A47988EE190E028B12058C8
:1003500028B92FEF30E742E0215030404040E1F72C
:1003600000C00000019791F78FEF93ED20E38150DB
:1003700090402040E1F700C00000C0E0D1E031E053
:10038000CD30D30721F089910E949700F8CF4FEF2D
:1003900083ED90E3415080409040E1F700C00000C1
:0603A000D3CFF894FFCF5B
:0E03A60048656C6C6F20776F726C64210000EC
:00000001FF
